{
  "contractName": "DonationPledge",
  "abi": [
    {
      "constant": true,
      "inputs": [],
      "name": "investor",
      "outputs": [
        {
          "name": "",
          "type": "address"
        }
      ],
      "payable": false,
      "stateMutability": "view",
      "type": "function"
    },
    {
      "constant": true,
      "inputs": [],
      "name": "value",
      "outputs": [
        {
          "name": "",
          "type": "uint256"
        }
      ],
      "payable": false,
      "stateMutability": "view",
      "type": "function"
    },
    {
      "constant": true,
      "inputs": [],
      "name": "fundManager",
      "outputs": [
        {
          "name": "",
          "type": "address"
        }
      ],
      "payable": false,
      "stateMutability": "view",
      "type": "function"
    },
    {
      "constant": true,
      "inputs": [
        {
          "name": "",
          "type": "address"
        }
      ],
      "name": "transactionInfo",
      "outputs": [
        {
          "name": "beneficiaryId",
          "type": "address"
        },
        {
          "name": "amountDisbursed",
          "type": "uint256"
        }
      ],
      "payable": false,
      "stateMutability": "view",
      "type": "function"
    },
    {
      "constant": true,
      "inputs": [],
      "name": "campaignFG",
      "outputs": [
        {
          "name": "",
          "type": "string"
        }
      ],
      "payable": false,
      "stateMutability": "view",
      "type": "function"
    },
    {
      "constant": true,
      "inputs": [],
      "name": "balance",
      "outputs": [
        {
          "name": "",
          "type": "uint256"
        }
      ],
      "payable": false,
      "stateMutability": "view",
      "type": "function"
    },
    {
      "constant": true,
      "inputs": [],
      "name": "state",
      "outputs": [
        {
          "name": "",
          "type": "uint8"
        }
      ],
      "payable": false,
      "stateMutability": "view",
      "type": "function"
    },
    {
      "inputs": [],
      "payable": true,
      "stateMutability": "payable",
      "type": "constructor"
    },
    {
      "constant": false,
      "inputs": [
        {
          "name": "_invAddr",
          "type": "address"
        },
        {
          "name": "_fmAddr",
          "type": "address"
        },
        {
          "name": "_cFgName",
          "type": "string"
        }
      ],
      "name": "addDetails",
      "outputs": [
        {
          "name": "",
          "type": "address"
        }
      ],
      "payable": false,
      "stateMutability": "nonpayable",
      "type": "function"
    },
    {
      "constant": false,
      "inputs": [
        {
          "name": "_beneficiary",
          "type": "address"
        },
        {
          "name": "_amount",
          "type": "uint256"
        }
      ],
      "name": "addTransactionInfo",
      "outputs": [],
      "payable": false,
      "stateMutability": "nonpayable",
      "type": "function"
    },
    {
      "constant": true,
      "inputs": [],
      "name": "getContractDetails",
      "outputs": [
        {
          "name": "",
          "type": "address"
        },
        {
          "name": "",
          "type": "address"
        },
        {
          "name": "",
          "type": "string"
        },
        {
          "name": "",
          "type": "uint256"
        },
        {
          "name": "",
          "type": "uint256"
        }
      ],
      "payable": false,
      "stateMutability": "view",
      "type": "function"
    },
    {
      "constant": true,
      "inputs": [],
      "name": "getContractTransactions",
      "outputs": [
        {
          "name": "",
          "type": "address[]"
        },
        {
          "name": "",
          "type": "uint256[]"
        }
      ],
      "payable": false,
      "stateMutability": "view",
      "type": "function"
    },
    {
      "constant": false,
      "inputs": [
        {
          "name": "_amount",
          "type": "uint256"
        }
      ],
      "name": "updateBalance",
      "outputs": [
        {
          "name": "",
          "type": "uint256"
        }
      ],
      "payable": false,
      "stateMutability": "nonpayable",
      "type": "function"
    },
    {
      "constant": false,
      "inputs": [
        {
          "name": "_amount",
          "type": "uint256"
        }
      ],
      "name": "reduceBalance",
      "outputs": [
        {
          "name": "",
          "type": "uint256"
        }
      ],
      "payable": false,
      "stateMutability": "nonpayable",
      "type": "function"
    }
  ],
  "bytecode": "0x60806040526000805411151561001457600080fd5b3460008190555034600781905550610e6b806100316000396000f3006080604052600436106100c5576000357c0100000000000000000000000000000000000000000000000000000000900463ffffffff1680631e0018d6146100ca5780633fa4f245146101215780636209ec2d1461014c57806384e6bc1a146101a35780639dfc9117146102575780639e10caed1461035b578063a10a16fd1461039c578063a392a5eb14610426578063afa34c76146104b6578063b69ef8a81461059f578063ba7b37d4146105ca578063c19d93fb1461060b578063fbcd132914610644575b600080fd5b3480156100d657600080fd5b506100df610691565b604051808273ffffffffffffffffffffffffffffffffffffffff1673ffffffffffffffffffffffffffffffffffffffff16815260200191505060405180910390f35b34801561012d57600080fd5b506101366106b7565b6040518082815260200191505060405180910390f35b34801561015857600080fd5b506101616106bd565b604051808273ffffffffffffffffffffffffffffffffffffffff1673ffffffffffffffffffffffffffffffffffffffff16815260200191505060405180910390f35b3480156101af57600080fd5b506101b86106e3565b604051808060200180602001838103835285818151815260200191508051906020019060200280838360005b838110156101ff5780820151818401526020810190506101e4565b50505050905001838103825284818151815260200191508051906020019060200280838360005b83811015610241578082015181840152602081019050610226565b5050505090500194505050505060405180910390f35b34801561026357600080fd5b5061026c610875565b604051808673ffffffffffffffffffffffffffffffffffffffff1673ffffffffffffffffffffffffffffffffffffffff1681526020018573ffffffffffffffffffffffffffffffffffffffff1673ffffffffffffffffffffffffffffffffffffffff16815260200180602001848152602001838152602001828103825285818151815260200191508051906020019080838360005b8381101561031c578082015181840152602081019050610301565b50505050905090810190601f1680156103495780820380516001836020036101000a031916815260200191505b50965050505050505060405180910390f35b34801561036757600080fd5b5061038660048036038101908080359060200190929190505050610978565b6040518082815260200191505060405180910390f35b3480156103a857600080fd5b506103dd600480360381019080803573ffffffffffffffffffffffffffffffffffffffff16906020019092919050505061098f565b604051808373ffffffffffffffffffffffffffffffffffffffff1673ffffffffffffffffffffffffffffffffffffffff1681526020018281526020019250505060405180910390f35b34801561043257600080fd5b5061043b6109d3565b6040518080602001828103825283818151815260200191508051906020019080838360005b8381101561047b578082015181840152602081019050610460565b50505050905090810190601f1680156104a85780820380516001836020036101000a031916815260200191505b509250505060405180910390f35b3480156104c257600080fd5b5061055d600480360381019080803573ffffffffffffffffffffffffffffffffffffffff169060200190929190803573ffffffffffffffffffffffffffffffffffffffff169060200190929190803590602001908201803590602001908080601f0160208091040260200160405190810160405280939291908181526020018383808284378201915050505050509192919290505050610a71565b604051808273ffffffffffffffffffffffffffffffffffffffff1673ffffffffffffffffffffffffffffffffffffffff16815260200191505060405180910390f35b3480156105ab57600080fd5b506105b4610b23565b6040518082815260200191505060405180910390f35b3480156105d657600080fd5b506105f560048036038101908080359060200190929190505050610b29565b6040518082815260200191505060405180910390f35b34801561061757600080fd5b50610620610b3c565b6040518082600281111561063057fe5b60ff16815260200191505060405180910390f35b34801561065057600080fd5b5061068f600480360381019080803573ffffffffffffffffffffffffffffffffffffffff16906020019092919080359060200190929190505050610b4f565b005b600160009054906101000a900473ffffffffffffffffffffffffffffffffffffffff1681565b60005481565b600260009054906101000a900473ffffffffffffffffffffffffffffffffffffffff1681565b60608060608060006106f3610d6a565b600091505b600580549050821015610867576004600060058481548110151561071857fe5b9060005260206000200160009054906101000a900473ffffffffffffffffffffffffffffffffffffffff1673ffffffffffffffffffffffffffffffffffffffff1673ffffffffffffffffffffffffffffffffffffffff1681526020019081526020016000206040805190810160405290816000820160009054906101000a900473ffffffffffffffffffffffffffffffffffffffff1673ffffffffffffffffffffffffffffffffffffffff1673ffffffffffffffffffffffffffffffffffffffff1681526020016001820154815250509050806000015184838151811015156107fd57fe5b9060200190602002019073ffffffffffffffffffffffffffffffffffffffff16908173ffffffffffffffffffffffffffffffffffffffff16815250508060200151838381518110151561084c57fe5b906020019060200201818152505081806001019250506106f8565b838395509550505050509091565b6000806060600080600160009054906101000a900473ffffffffffffffffffffffffffffffffffffffff16600260009054906101000a900473ffffffffffffffffffffffffffffffffffffffff166003600054600754828054600181600116156101000203166002900480601f0160208091040260200160405190810160405280929190818152602001828054600181600116156101000203166002900480156109605780601f1061093557610100808354040283529160200191610960565b820191906000526020600020905b81548152906001019060200180831161094357829003601f168201915b50505050509250945094509450945094509091929394565b600081600754036007819055506007549050919050565b60046020528060005260406000206000915090508060000160009054906101000a900473ffffffffffffffffffffffffffffffffffffffff16908060010154905082565b60038054600181600116156101000203166002900480601f016020809104026020016040519081016040528092919081815260200182805460018160011615610100020316600290048015610a695780601f10610a3e57610100808354040283529160200191610a69565b820191906000526020600020905b815481529060010190602001808311610a4c57829003601f168201915b505050505081565b600083600160006101000a81548173ffffffffffffffffffffffffffffffffffffffff021916908373ffffffffffffffffffffffffffffffffffffffff16021790555082600260006101000a81548173ffffffffffffffffffffffffffffffffffffffff021916908373ffffffffffffffffffffffffffffffffffffffff1602179055508160039080519060200190610b0b929190610d9a565b50610b17600054610c81565b50503090509392505050565b60075481565b6000816007819055506007549050919050565b600660009054906101000a900460ff1681565b81600460008473ffffffffffffffffffffffffffffffffffffffff1673ffffffffffffffffffffffffffffffffffffffff16815260200190815260200160002060000160006101000a81548173ffffffffffffffffffffffffffffffffffffffff021916908373ffffffffffffffffffffffffffffffffffffffff16021790555080600460008473ffffffffffffffffffffffffffffffffffffffff1673ffffffffffffffffffffffffffffffffffffffff1681526020019081526020016000206001018190555060058290806001815401808255809150509060018203906000526020600020016000909192909190916101000a81548173ffffffffffffffffffffffffffffffffffffffff021916908373ffffffffffffffffffffffffffffffffffffffff160217905550505050565b600080600260009054906101000a900473ffffffffffffffffffffffffffffffffffffffff1673ffffffffffffffffffffffffffffffffffffffff166108fc849081150290604051600060405180830381858888f19350505050158015610cec573d6000803e3d6000fd5b50600260009054906101000a900473ffffffffffffffffffffffffffffffffffffffff1673ffffffffffffffffffffffffffffffffffffffff1631600160009054906101000a900473ffffffffffffffffffffffffffffffffffffffff1673ffffffffffffffffffffffffffffffffffffffff163191509150915091565b6040805190810160405280600073ffffffffffffffffffffffffffffffffffffffff168152602001600081525090565b828054600181600116156101000203166002900490600052602060002090601f016020900481019282601f10610ddb57805160ff1916838001178555610e09565b82800160010185558215610e09579182015b82811115610e08578251825591602001919060010190610ded565b5b509050610e169190610e1a565b5090565b610e3c91905b80821115610e38576000816000905550600101610e20565b5090565b905600a165627a7a723058204785e8b81db5bc324e47578819b016629c8008a38d6c250d9015a0fbaf87de6c0029",
  "source": "pragma solidity ^0.4.21;\r\n\r\n//Contract for donation \r\ncontract DonationPledge {\r\n    uint public value;\r\n    address public investor;\r\n    address public fundManager;\r\n    string public campaignFG;\r\n    mapping(address => tranInfo) public transactionInfo; \r\n    address[] tranInfoIndex;\r\n    enum State { Created, Locked, Inactive }\r\n    State public state;\r\n    uint public balance;\r\n    \r\n    struct tranInfo{\r\n        address beneficiaryId;\r\n        uint amountDisbursed;\r\n    }\r\n\r\n\r\n    constructor() public payable {\r\n        require(value > 0);\r\n        value = msg.value;\r\n        balance = msg.value;\r\n        \r\n    }\r\n     \r\n    //adds details to the instance\r\n    //TRANSFERS Fund to Fund Manager\r\n    //returns the contract address\r\n    function addDetails(address _invAddr, address _fmAddr, string _cFgName)\r\n    public\r\n    returns (address)\r\n    {\r\n        investor = _invAddr;\r\n        fundManager = _fmAddr;\r\n        campaignFG = _cFgName;\r\n        intialTransfer(value);\r\n        return address(this);\r\n    }\r\n\r\n    //adds the transactions performed for each beneficiary.\r\n    function addTransactionInfo (address _beneficiary, uint _amount)\r\n    public\r\n    {\r\n        transactionInfo[_beneficiary].beneficiaryId = _beneficiary;\r\n        transactionInfo[_beneficiary].amountDisbursed = _amount; \r\n        tranInfoIndex.push(_beneficiary);\r\n    }\r\n\r\n    //returns the contract information.\r\n    function getContractDetails()\r\n    public\r\n    view\r\n    returns (address, address, string, uint, uint)\r\n    {\r\n        return(investor, fundManager,campaignFG, value, balance);\r\n    }\r\n    \r\n    //gets all the transactions performed against this contract.\r\n    function getContractTransactions()\r\n    public view\r\n    returns(address[], uint[] )\r\n    {\r\n        address[] memory _beneficiaries;\r\n        uint[] memory _tranAmt;\r\n        for(uint i = 0; i<tranInfoIndex.length; i++)\r\n        {\r\n            tranInfo memory info = transactionInfo[tranInfoIndex[i]];\r\n            _beneficiaries[i] = info.beneficiaryId;\r\n            _tranAmt[i] = info.amountDisbursed;\r\n        }\r\n        \r\n        return (_beneficiaries, _tranAmt);\r\n    }\r\n    \r\n    //transfers the amount pledged by investor to the fund manager account\r\n    //while creating the pledging.    \r\n    function intialTransfer(uint _amount)\r\n    private \r\n    returns(uint, uint)\r\n    {\r\n        fundManager.transfer(_amount);\r\n        return (fundManager.balance, investor.balance);\r\n    }\r\n    \r\n    //updates the current balance.\r\n    function updateBalance(uint _amount)\r\n    public \r\n    returns(uint)\r\n    {\r\n        balance = _amount;\r\n        return (balance);\r\n    }\r\n    \r\n    //deducts the provided amount from balance.\r\n    function reduceBalance(uint _amount)\r\n    public \r\n    returns(uint)\r\n    {\r\n        balance = balance - _amount;\r\n        return (balance);\r\n    }\r\n}",
  "sourcePath": "C:\\Work\\BC\\Dev\\FundChain\\Project\\FundChainTruffle\\contracts\\DonationPledge.sol",
  "compiler": {
    "name": "solc",
    "version": "0.4.24+commit.e67f0147.Emscripten.clang"
  },
  "schemaVersion": "2.0.1",
  "updatedAt": "2018-11-26T00:00:48.497Z"
}