{
  "contractName": "Master",
  "abi": [
    {
      "inputs": [],
      "payable": true,
      "stateMutability": "payable",
      "type": "constructor"
    },
    {
      "constant": false,
      "inputs": [
        {
          "name": "_acctId",
          "type": "address"
        },
        {
          "name": "_fmId",
          "type": "address"
        },
        {
          "name": "_name",
          "type": "string"
        },
        {
          "name": "_emailId",
          "type": "string"
        },
        {
          "name": "_phNumber",
          "type": "string"
        },
        {
          "name": "_password",
          "type": "string"
        }
      ],
      "name": "addBeneficiary",
      "outputs": [
        {
          "name": "",
          "type": "uint256"
        }
      ],
      "payable": false,
      "stateMutability": "nonpayable",
      "type": "function"
    },
    {
      "constant": false,
      "inputs": [
        {
          "name": "_beneAddr",
          "type": "address"
        },
        {
          "name": "_cFgName",
          "type": "string"
        }
      ],
      "name": "addBeneficiaryToCFG",
      "outputs": [
        {
          "name": "",
          "type": "bool"
        }
      ],
      "payable": false,
      "stateMutability": "nonpayable",
      "type": "function"
    },
    {
      "constant": false,
      "inputs": [
        {
          "name": "_name",
          "type": "string"
        },
        {
          "name": "_fmId",
          "type": "address"
        },
        {
          "name": "_startDate",
          "type": "uint256"
        },
        {
          "name": "_expiryDate",
          "type": "uint256"
        }
      ],
      "name": "addCampaignFG",
      "outputs": [
        {
          "name": "",
          "type": "uint256"
        }
      ],
      "payable": false,
      "stateMutability": "nonpayable",
      "type": "function"
    },
    {
      "constant": false,
      "inputs": [
        {
          "name": "_contractAddr",
          "type": "address"
        },
        {
          "name": "_cFgName",
          "type": "string"
        }
      ],
      "name": "addContractToCFG",
      "outputs": [
        {
          "name": "",
          "type": "bool"
        }
      ],
      "payable": false,
      "stateMutability": "nonpayable",
      "type": "function"
    },
    {
      "constant": false,
      "inputs": [
        {
          "name": "_acctId",
          "type": "address"
        },
        {
          "name": "_name",
          "type": "string"
        },
        {
          "name": "_emailId",
          "type": "string"
        },
        {
          "name": "_phNumber",
          "type": "string"
        },
        {
          "name": "_password",
          "type": "string"
        }
      ],
      "name": "addFM",
      "outputs": [
        {
          "name": "",
          "type": "uint256"
        }
      ],
      "payable": false,
      "stateMutability": "nonpayable",
      "type": "function"
    },
    {
      "constant": false,
      "inputs": [
        {
          "name": "_acctId",
          "type": "address"
        },
        {
          "name": "_name",
          "type": "string"
        },
        {
          "name": "_emailId",
          "type": "string"
        },
        {
          "name": "_phNumber",
          "type": "string"
        },
        {
          "name": "_password",
          "type": "string"
        }
      ],
      "name": "addInvestor",
      "outputs": [
        {
          "name": "",
          "type": "uint256"
        }
      ],
      "payable": false,
      "stateMutability": "nonpayable",
      "type": "function"
    },
    {
      "constant": false,
      "inputs": [
        {
          "name": "_invAddr",
          "type": "address"
        },
        {
          "name": "_fmAddr",
          "type": "address"
        },
        {
          "name": "_cFgName",
          "type": "string"
        },
        {
          "name": "_amount",
          "type": "uint256"
        }
      ],
      "name": "createPledge",
      "outputs": [
        {
          "name": "",
          "type": "address"
        }
      ],
      "payable": true,
      "stateMutability": "payable",
      "type": "function"
    },
    {
      "constant": true,
      "inputs": [],
      "name": "getCampaigns",
      "outputs": [
        {
          "name": "",
          "type": "string[]"
        }
      ],
      "payable": false,
      "stateMutability": "view",
      "type": "function"
    },
    {
      "constant": true,
      "inputs": [
        {
          "name": "_fmAddr",
          "type": "address"
        }
      ],
      "name": "getCampaignsUnderFM",
      "outputs": [
        {
          "name": "",
          "type": "string[]"
        }
      ],
      "payable": false,
      "stateMutability": "view",
      "type": "function"
    },
    {
      "constant": true,
      "inputs": [
        {
          "name": "_cfgName",
          "type": "string"
        }
      ],
      "name": "getCFGBeneficiaries",
      "outputs": [
        {
          "name": "",
          "type": "address[]"
        }
      ],
      "payable": false,
      "stateMutability": "view",
      "type": "function"
    },
    {
      "constant": true,
      "inputs": [
        {
          "name": "_cfgName",
          "type": "string"
        }
      ],
      "name": "getCFGBeneficiariesCount",
      "outputs": [
        {
          "name": "",
          "type": "uint256"
        }
      ],
      "payable": false,
      "stateMutability": "view",
      "type": "function"
    },
    {
      "constant": true,
      "inputs": [
        {
          "name": "_cfgName",
          "type": "string"
        }
      ],
      "name": "getCFGContracts",
      "outputs": [
        {
          "name": "",
          "type": "address[]"
        }
      ],
      "payable": false,
      "stateMutability": "view",
      "type": "function"
    },
    {
      "constant": true,
      "inputs": [
        {
          "name": "_contractAddr",
          "type": "address"
        }
      ],
      "name": "getPledgeContractDetails",
      "outputs": [
        {
          "name": "_investorAddress",
          "type": "address"
        },
        {
          "name": "_fundManagerAddr",
          "type": "address"
        },
        {
          "name": "_cfgName",
          "type": "string"
        },
        {
          "name": "_pledgedAmount",
          "type": "uint256"
        },
        {
          "name": "_balance",
          "type": "uint256"
        }
      ],
      "payable": false,
      "stateMutability": "view",
      "type": "function"
    },
    {
      "constant": true,
      "inputs": [
        {
          "name": "_contractAddr",
          "type": "address"
        }
      ],
      "name": "getContractTransactions",
      "outputs": [
        {
          "name": "",
          "type": "address[]"
        },
        {
          "name": "",
          "type": "uint256[]"
        }
      ],
      "payable": false,
      "stateMutability": "view",
      "type": "function"
    },
    {
      "constant": true,
      "inputs": [
        {
          "name": "_id",
          "type": "address"
        },
        {
          "name": "_pType",
          "type": "uint8"
        }
      ],
      "name": "getUser",
      "outputs": [
        {
          "name": "",
          "type": "string"
        },
        {
          "name": "",
          "type": "string"
        },
        {
          "name": "",
          "type": "string"
        },
        {
          "name": "",
          "type": "string"
        },
        {
          "name": "",
          "type": "address"
        },
        {
          "name": "",
          "type": "uint256"
        }
      ],
      "payable": false,
      "stateMutability": "view",
      "type": "function"
    }
  ],
  "bytecode": "0x608060405260008055600060015561497c8061001c6000396000f3006080604052600436106100db576000357c0100000000000000000000000000000000000000000000000000000000900463ffffffff16806320579d71146100e0578063272bc8941461011d5780632cd3c02c1461015a5780632d56fa1314610197578063339b35d9146101d55780634d610450146102125780635572156f1461024f5780636259c9e21461028c5780636294e594146102cd5780639df80fd0146102fd578063a6b036331461033a578063bf1dfc5f14610365578063c26947b0146103a2578063d4f05c9c146103df578063f989d87a1461041c575b600080fd5b3480156100ec57600080fd5b50610107600480360361010291908101906131eb565b61045e565b6040516101149190613638565b60405180910390f35b34801561012957600080fd5b50610144600480360361013f9190810190613054565b6104d9565b60405161015191906135a0565b60405180910390f35b34801561016657600080fd5b50610181600480360361017c91908101906130a8565b6105b7565b60405161018e9190613638565b60405180910390f35b3480156101a357600080fd5b506101be60048036036101b99190810190612dd3565b61087f565b6040516101cc929190613547565b60405180910390f35b3480156101e157600080fd5b506101fc60048036036101f79190810190612e25565b610932565b6040516102099190613638565b60405180910390f35b34801561021e57600080fd5b50610239600480360361023491908101906131eb565b610ca1565b6040516102469190613525565b60405180910390f35b34801561025b57600080fd5b506102766004803603610271919081019061322c565b610d9d565b6040516102839190613638565b60405180910390f35b34801561029857600080fd5b506102b360048036036102ae9190810190612dd3565b6110fe565b6040516102c49594939291906134cb565b60405180910390f35b6102e760048036036102e29190810190612f0e565b6111c0565b6040516102f49190613464565b60405180910390f35b34801561030957600080fd5b50610324600480360361031f91908101906130a8565b61142b565b6040516103319190613638565b60405180910390f35b34801561034657600080fd5b5061034f6116f3565b60405161035c919061357e565b60405180910390f35b34801561037157600080fd5b5061038c60048036036103879190810190613054565b6117dc565b60405161039991906135a0565b60405180910390f35b3480156103ae57600080fd5b506103c960048036036103c49190810190612dd3565b6118d0565b6040516103d6919061357e565b60405180910390f35b3480156103eb57600080fd5b50610406600480360361040191908101906131eb565b6119fb565b6040516104139190613525565b60405180910390f35b34801561042857600080fd5b50610443600480360361043e9190810190613018565b611af7565b604051610455969594939291906135bb565b60405180910390f35b60006005826040518082805190602001908083835b6020831015156104985780518252602082019150602081019050602083039250610473565b6001836020036101000a0380198251168184511680821785525050505050509050019150509081526020016040518091039020600101805490509050919050565b60006005826040518082805190602001908083835b60208310151561051357805182526020820191506020810190506020830392506104ee565b6001836020036101000a03801982511681845116808217855250505050505090500191505090815260200160405180910390206002018390806001815401808255809150509060018203906000526020600020016000909192909190916101000a81548173ffffffffffffffffffffffffffffffffffffffff021916908373ffffffffffffffffffffffffffffffffffffffff160217905550506001905092915050565b60006105c486600161283f565b156105ce57600080fd5b84600360008873ffffffffffffffffffffffffffffffffffffffff1673ffffffffffffffffffffffffffffffffffffffff1681526020019081526020016000206000016000019080519060200190610627929190612b04565b5083600360008873ffffffffffffffffffffffffffffffffffffffff1673ffffffffffffffffffffffffffffffffffffffff1681526020019081526020016000206000016001019080519060200190610681929190612b04565b5082600360008873ffffffffffffffffffffffffffffffffffffffff1673ffffffffffffffffffffffffffffffffffffffff16815260200190815260200160002060000160020190805190602001906106db929190612b04565b5081600360008873ffffffffffffffffffffffffffffffffffffffff1673ffffffffffffffffffffffffffffffffffffffff1681526020019081526020016000206000016005019080519060200190610735929190612b04565b5085600360008873ffffffffffffffffffffffffffffffffffffffff1673ffffffffffffffffffffffffffffffffffffffff16815260200190815260200160002060000160030160006101000a81548173ffffffffffffffffffffffffffffffffffffffff021916908373ffffffffffffffffffffffffffffffffffffffff1602179055506001600a8790806001815401808255809150509060018203906000526020600020016000909192909190916101000a81548173ffffffffffffffffffffffffffffffffffffffff021916908373ffffffffffffffffffffffffffffffffffffffff16021790555003600360008873ffffffffffffffffffffffffffffffffffffffff1673ffffffffffffffffffffffffffffffffffffffff168152602001908152602001600020600001600601819055506001600a8054905003905095945050505050565b60608060008390508073ffffffffffffffffffffffffffffffffffffffff166384e6bc1a6040518163ffffffff167c0100000000000000000000000000000000000000000000000000000000028152600401600060405180830381600087803b1580156108eb57600080fd5b505af11580156108ff573d6000803e3d6000fd5b505050506040513d6000823e3d601f19601f82011682018060405250610928919081019061317f565b9250925050915091565b600061093f87600261283f565b1561094957600080fd5b84600460008973ffffffffffffffffffffffffffffffffffffffff1673ffffffffffffffffffffffffffffffffffffffff16815260200190815260200160002060000160000190805190602001906109a2929190612b04565b5083600460008973ffffffffffffffffffffffffffffffffffffffff1673ffffffffffffffffffffffffffffffffffffffff16815260200190815260200160002060000160010190805190602001906109fc929190612b04565b5082600460008973ffffffffffffffffffffffffffffffffffffffff1673ffffffffffffffffffffffffffffffffffffffff1681526020019081526020016000206000016002019080519060200190610a56929190612b04565b5081600460008973ffffffffffffffffffffffffffffffffffffffff1673ffffffffffffffffffffffffffffffffffffffff1681526020019081526020016000206000016005019080519060200190610ab0929190612b04565b5086600460008973ffffffffffffffffffffffffffffffffffffffff1673ffffffffffffffffffffffffffffffffffffffff16815260200190815260200160002060000160030160006101000a81548173ffffffffffffffffffffffffffffffffffffffff021916908373ffffffffffffffffffffffffffffffffffffffff160217905550600160088890806001815401808255809150509060018203906000526020600020016000909192909190916101000a81548173ffffffffffffffffffffffffffffffffffffffff021916908373ffffffffffffffffffffffffffffffffffffffff16021790555003600460008973ffffffffffffffffffffffffffffffffffffffff1673ffffffffffffffffffffffffffffffffffffffff16815260200190815260200160002060000160060181905550600360008773ffffffffffffffffffffffffffffffffffffffff1673ffffffffffffffffffffffffffffffffffffffff1681526020019081526020016000206008018790806001815401808255809150509060018203906000526020600020016000909192909190916101000a81548173ffffffffffffffffffffffffffffffffffffffff021916908373ffffffffffffffffffffffffffffffffffffffff1602179055505060016008805490500390509695505050505050565b60606005826040518082805190602001908083835b602083101515610cdb5780518252602082019150602081019050602083039250610cb6565b6001836020036101000a0380198251168184511680821785525050505050509050019150509081526020016040518091039020600101805480602002602001604051908101604052809291908181526020018280548015610d9157602002820191906000526020600020905b8160009054906101000a900473ffffffffffffffffffffffffffffffffffffffff1673ffffffffffffffffffffffffffffffffffffffff1681526020019060010190808311610d47575b50505050509050919050565b6000836005866040518082805190602001908083835b602083101515610dd85780518252602082019150602081019050602083039250610db3565b6001836020036101000a038019825116818451168082178552505050505050905001915050908152602001604051809103902060030160006101000a81548173ffffffffffffffffffffffffffffffffffffffff021916908373ffffffffffffffffffffffffffffffffffffffff160217905550826005866040518082805190602001908083835b602083101515610e855780518252602082019150602081019050602083039250610e60565b6001836020036101000a038019825116818451168082178552505050505050905001915050908152602001604051809103902060050181905550816005866040518082805190602001908083835b602083101515610ef85780518252602082019150602081019050602083039250610ed3565b6001836020036101000a03801982511681845116808217855250505050505090500191505090815260200160405180910390206006018190555060016005866040518082805190602001908083835b602083101515610f6c5780518252602082019150602081019050602083039250610f47565b6001836020036101000a038019825116818451168082178552505050505050905001915050908152602001604051809103902060070160006101000a81548160ff02191690831515021790555060016009869080600181540180825580915050906001820390600052602060002001600090919290919091509080519060200190610ff8929190612b04565b50036005866040518082805190602001908083835b602083101515611032578051825260208201915060208101905060208303925061100d565b6001836020036101000a038019825116818451168082178552505050505050905001915050908152602001604051809103902060040181905550600360008573ffffffffffffffffffffffffffffffffffffffff1673ffffffffffffffffffffffffffffffffffffffff1681526020019081526020016000206007018590806001815401808255809150509060018203906000526020600020016000909192909190915090805190602001906110e9929190612b04565b50506001600980549050039050949350505050565b600080606060008060008690508073ffffffffffffffffffffffffffffffffffffffff16639dfc91176040518163ffffffff167c0100000000000000000000000000000000000000000000000000000000028152600401600060405180830381600087803b15801561116f57600080fd5b505af1158015611183573d6000803e3d6000fd5b505050506040513d6000823e3d601f19601f820116820180604052506111ac9190810190612f89565b955095509550955095505091939590929450565b6000806000831115156111d257600080fd5b6111da612b84565b604051809103906000f0801580156111f6573d6000803e3d6000fd5b5090508073ffffffffffffffffffffffffffffffffffffffff166375b75e53878787876040518563ffffffff167c0100000000000000000000000000000000000000000000000000000000028152600401611254949392919061347f565b602060405180830381600087803b15801561126e57600080fd5b505af1158015611282573d6000803e3d6000fd5b505050506040513d601f19601f820116820180604052506112a69190810190612dfc565b50600260003373ffffffffffffffffffffffffffffffffffffffff1673ffffffffffffffffffffffffffffffffffffffff1681526020019081526020016000206008018190806001815401808255809150509060018203906000526020600020016000909192909190916101000a81548173ffffffffffffffffffffffffffffffffffffffff021916908373ffffffffffffffffffffffffffffffffffffffff160217905550506005846040518082805190602001908083835b6020831015156113855780518252602082019150602081019050602083039250611360565b6001836020036101000a03801982511681845116808217855250505050505090500191505090815260200160405180910390206002018190806001815401808255809150509060018203906000526020600020016000909192909190916101000a81548173ffffffffffffffffffffffffffffffffffffffff021916908373ffffffffffffffffffffffffffffffffffffffff1602179055505080915050949350505050565b600061143886600061283f565b1561144257600080fd5b84600260008873ffffffffffffffffffffffffffffffffffffffff1673ffffffffffffffffffffffffffffffffffffffff168152602001908152602001600020600001600001908051906020019061149b929190612b04565b5083600260008873ffffffffffffffffffffffffffffffffffffffff1673ffffffffffffffffffffffffffffffffffffffff16815260200190815260200160002060000160010190805190602001906114f5929190612b04565b5082600260008873ffffffffffffffffffffffffffffffffffffffff1673ffffffffffffffffffffffffffffffffffffffff168152602001908152602001600020600001600201908051906020019061154f929190612b04565b5081600260008873ffffffffffffffffffffffffffffffffffffffff1673ffffffffffffffffffffffffffffffffffffffff16815260200190815260200160002060000160050190805190602001906115a9929190612b04565b5085600260008873ffffffffffffffffffffffffffffffffffffffff1673ffffffffffffffffffffffffffffffffffffffff16815260200190815260200160002060000160030160006101000a81548173ffffffffffffffffffffffffffffffffffffffff021916908373ffffffffffffffffffffffffffffffffffffffff1602179055506001600b8790806001815401808255809150509060018203906000526020600020016000909192909190916101000a81548173ffffffffffffffffffffffffffffffffffffffff021916908373ffffffffffffffffffffffffffffffffffffffff16021790555003600260008873ffffffffffffffffffffffffffffffffffffffff1673ffffffffffffffffffffffffffffffffffffffff168152602001908152602001600020600001600601819055506001600b8054905003905095945050505050565b60606009805480602002602001604051908101604052809291908181526020016000905b828210156117d3578382906000526020600020018054600181600116156101000203166002900480601f0160208091040260200160405190810160405280929190818152602001828054600181600116156101000203166002900480156117bf5780601f10611794576101008083540402835291602001916117bf565b820191906000526020600020905b8154815290600101906020018083116117a257829003601f168201915b505050505081526020019060010190611717565b50505050905090565b60006117e983600261283f565b15156117f457600080fd5b6005826040518082805190602001908083835b60208310151561182c5780518252602082019150602081019050602083039250611807565b6001836020036101000a03801982511681845116808217855250505050505090500191505090815260200160405180910390206001018390806001815401808255809150509060018203906000526020600020016000909192909190916101000a81548173ffffffffffffffffffffffffffffffffffffffff021916908373ffffffffffffffffffffffffffffffffffffffff160217905550506001905092915050565b6060600360008373ffffffffffffffffffffffffffffffffffffffff1673ffffffffffffffffffffffffffffffffffffffff168152602001908152602001600020600701805480602002602001604051908101604052809291908181526020016000905b828210156119f0578382906000526020600020018054600181600116156101000203166002900480601f0160208091040260200160405190810160405280929190818152602001828054600181600116156101000203166002900480156119dc5780601f106119b1576101008083540402835291602001916119dc565b820191906000526020600020905b8154815290600101906020018083116119bf57829003601f168201915b505050505081526020019060010190611934565b505050509050919050565b60606005826040518082805190602001908083835b602083101515611a355780518252602082019150602081019050602083039250611a10565b6001836020036101000a0380198251168184511680821785525050505050509050019150509081526020016040518091039020600201805480602002602001604051908101604052809291908181526020018280548015611aeb57602002820191906000526020600020905b8160009054906101000a900473ffffffffffffffffffffffffffffffffffffffff1673ffffffffffffffffffffffffffffffffffffffff1681526020019060010190808311611aa1575b50505050509050919050565b606080606080600080611b0a888861283f565b1515611b1557600080fd5b60006002811115611b2257fe5b876002811115611b2e57fe5b1415611f7557600260008973ffffffffffffffffffffffffffffffffffffffff1673ffffffffffffffffffffffffffffffffffffffff168152602001908152602001600020600001600001600260008a73ffffffffffffffffffffffffffffffffffffffff1673ffffffffffffffffffffffffffffffffffffffff168152602001908152602001600020600001600101600260008b73ffffffffffffffffffffffffffffffffffffffff1673ffffffffffffffffffffffffffffffffffffffff168152602001908152602001600020600001600201600260008c73ffffffffffffffffffffffffffffffffffffffff1673ffffffffffffffffffffffffffffffffffffffff168152602001908152602001600020600001600501600260008d73ffffffffffffffffffffffffffffffffffffffff1673ffffffffffffffffffffffffffffffffffffffff16815260200190815260200160002060000160030160009054906101000a900473ffffffffffffffffffffffffffffffffffffffff16600260008e73ffffffffffffffffffffffffffffffffffffffff1673ffffffffffffffffffffffffffffffffffffffff16815260200190815260200160002060000160060154858054600181600116156101000203166002900480601f016020809104026020016040519081016040528092919081815260200182805460018160011615610100020316600290048015611d895780601f10611d5e57610100808354040283529160200191611d89565b820191906000526020600020905b815481529060010190602001808311611d6c57829003601f168201915b50505050509550848054600181600116156101000203166002900480601f016020809104026020016040519081016040528092919081815260200182805460018160011615610100020316600290048015611e255780601f10611dfa57610100808354040283529160200191611e25565b820191906000526020600020905b815481529060010190602001808311611e0857829003601f168201915b50505050509450838054600181600116156101000203166002900480601f016020809104026020016040519081016040528092919081815260200182805460018160011615610100020316600290048015611ec15780601f10611e9657610100808354040283529160200191611ec1565b820191906000526020600020905b815481529060010190602001808311611ea457829003601f168201915b50505050509350828054600181600116156101000203166002900480601f016020809104026020016040519081016040528092919081815260200182805460018160011615610100020316600290048015611f5d5780601f10611f3257610100808354040283529160200191611f5d565b820191906000526020600020905b815481529060010190602001808311611f4057829003601f168201915b50505050509250955095509550955095509550612835565b60016002811115611f8257fe5b876002811115611f8e57fe5b14156123d557600360008973ffffffffffffffffffffffffffffffffffffffff1673ffffffffffffffffffffffffffffffffffffffff168152602001908152602001600020600001600001600360008a73ffffffffffffffffffffffffffffffffffffffff1673ffffffffffffffffffffffffffffffffffffffff168152602001908152602001600020600001600101600360008b73ffffffffffffffffffffffffffffffffffffffff1673ffffffffffffffffffffffffffffffffffffffff168152602001908152602001600020600001600201600360008c73ffffffffffffffffffffffffffffffffffffffff1673ffffffffffffffffffffffffffffffffffffffff168152602001908152602001600020600001600501600360008d73ffffffffffffffffffffffffffffffffffffffff1673ffffffffffffffffffffffffffffffffffffffff16815260200190815260200160002060000160030160009054906101000a900473ffffffffffffffffffffffffffffffffffffffff16600360008e73ffffffffffffffffffffffffffffffffffffffff1673ffffffffffffffffffffffffffffffffffffffff16815260200190815260200160002060000160060154858054600181600116156101000203166002900480601f0160208091040260200160405190810160405280929190818152602001828054600181600116156101000203166002900480156121e95780601f106121be576101008083540402835291602001916121e9565b820191906000526020600020905b8154815290600101906020018083116121cc57829003601f168201915b50505050509550848054600181600116156101000203166002900480601f0160208091040260200160405190810160405280929190818152602001828054600181600116156101000203166002900480156122855780601f1061225a57610100808354040283529160200191612285565b820191906000526020600020905b81548152906001019060200180831161226857829003601f168201915b50505050509450838054600181600116156101000203166002900480601f0160208091040260200160405190810160405280929190818152602001828054600181600116156101000203166002900480156123215780601f106122f657610100808354040283529160200191612321565b820191906000526020600020905b81548152906001019060200180831161230457829003601f168201915b50505050509350828054600181600116156101000203166002900480601f0160208091040260200160405190810160405280929190818152602001828054600181600116156101000203166002900480156123bd5780601f10612392576101008083540402835291602001916123bd565b820191906000526020600020905b8154815290600101906020018083116123a057829003601f168201915b50505050509250955095509550955095509550612835565b6002808111156123e157fe5b8760028111156123ed57fe5b141561283457600460008973ffffffffffffffffffffffffffffffffffffffff1673ffffffffffffffffffffffffffffffffffffffff168152602001908152602001600020600001600001600460008a73ffffffffffffffffffffffffffffffffffffffff1673ffffffffffffffffffffffffffffffffffffffff168152602001908152602001600020600001600101600460008b73ffffffffffffffffffffffffffffffffffffffff1673ffffffffffffffffffffffffffffffffffffffff168152602001908152602001600020600001600201600460008c73ffffffffffffffffffffffffffffffffffffffff1673ffffffffffffffffffffffffffffffffffffffff168152602001908152602001600020600001600501600460008d73ffffffffffffffffffffffffffffffffffffffff1673ffffffffffffffffffffffffffffffffffffffff16815260200190815260200160002060000160030160009054906101000a900473ffffffffffffffffffffffffffffffffffffffff16600460008e73ffffffffffffffffffffffffffffffffffffffff1673ffffffffffffffffffffffffffffffffffffffff16815260200190815260200160002060000160060154858054600181600116156101000203166002900480601f0160208091040260200160405190810160405280929190818152602001828054600181600116156101000203166002900480156126485780601f1061261d57610100808354040283529160200191612648565b820191906000526020600020905b81548152906001019060200180831161262b57829003601f168201915b50505050509550848054600181600116156101000203166002900480601f0160208091040260200160405190810160405280929190818152602001828054600181600116156101000203166002900480156126e45780601f106126b9576101008083540402835291602001916126e4565b820191906000526020600020905b8154815290600101906020018083116126c757829003601f168201915b50505050509450838054600181600116156101000203166002900480601f0160208091040260200160405190810160405280929190818152602001828054600181600116156101000203166002900480156127805780601f1061275557610100808354040283529160200191612780565b820191906000526020600020905b81548152906001019060200180831161276357829003601f168201915b50505050509350828054600181600116156101000203166002900480601f01602080910402602001604051908101604052809291908181526020018280546001816001161561010002031660029004801561281c5780601f106127f15761010080835404028352916020019161281c565b820191906000526020600020905b8154815290600101906020018083116127ff57829003601f168201915b50505050509250955095509550955095509550612835565b5b9295509295509295565b600080600281111561284d57fe5b82600281111561285957fe5b141561292a576000600b8054905014156128765760009050612afe565b8273ffffffffffffffffffffffffffffffffffffffff16600b600260008673ffffffffffffffffffffffffffffffffffffffff1673ffffffffffffffffffffffffffffffffffffffff168152602001908152602001600020600001600601548154811015156128e157fe5b9060005260206000200160009054906101000a900473ffffffffffffffffffffffffffffffffffffffff1673ffffffffffffffffffffffffffffffffffffffff16149050612afe565b6001600281111561293757fe5b82600281111561294357fe5b1415612a14576000600a8054905014156129605760009050612afe565b8273ffffffffffffffffffffffffffffffffffffffff16600a600360008673ffffffffffffffffffffffffffffffffffffffff1673ffffffffffffffffffffffffffffffffffffffff168152602001908152602001600020600001600601548154811015156129cb57fe5b9060005260206000200160009054906101000a900473ffffffffffffffffffffffffffffffffffffffff1673ffffffffffffffffffffffffffffffffffffffff16149050612afe565b600280811115612a2057fe5b826002811115612a2c57fe5b1415612afd5760006008805490501415612a495760009050612afe565b8273ffffffffffffffffffffffffffffffffffffffff166008600460008673ffffffffffffffffffffffffffffffffffffffff1673ffffffffffffffffffffffffffffffffffffffff16815260200190815260200160002060000160060154815481101515612ab457fe5b9060005260206000200160009054906101000a900473ffffffffffffffffffffffffffffffffffffffff1673ffffffffffffffffffffffffffffffffffffffff16149050612afe565b5b92915050565b828054600181600116156101000203166002900490600052602060002090601f016020900481019282601f10612b4557805160ff1916838001178555612b73565b82800160010185558215612b73579182015b82811115612b72578251825591602001919060010190612b57565b5b509050612b809190612b94565b5090565b6040516110f58061384e83390190565b612bb691905b80821115612bb2576000816000905550600101612b9a565b5090565b90565b6000612bc582356137b7565b905092915050565b6000612bd982516137b7565b905092915050565b600082601f8301121515612bf457600080fd5b8151612c07612c0282613680565b613653565b91508181835260208401935060208101905083856020840282011115612c2c57600080fd5b60005b83811015612c5c5781612c428882612bcd565b845260208401935060208301925050600181019050612c2f565b5050505092915050565b600082601f8301121515612c7957600080fd5b8151612c8c612c87826136a8565b613653565b91508181835260208401935060208101905083856020840282011115612cb157600080fd5b60005b83811015612ce15781612cc78882612dbf565b845260208401935060208301925050600181019050612cb4565b5050505092915050565b6000612cf782356137d7565b905092915050565b600082601f8301121515612d1257600080fd5b8135612d25612d20826136d0565b613653565b91508082526020830160208301858383011115612d4157600080fd5b612d4c8382846137fa565b50505092915050565b600082601f8301121515612d6857600080fd5b8151612d7b612d76826136d0565b613653565b91508082526020830160208301858383011115612d9757600080fd5b612da2838284613809565b50505092915050565b6000612db782356137f0565b905092915050565b6000612dcb82516137f0565b905092915050565b600060208284031215612de557600080fd5b6000612df384828501612bb9565b91505092915050565b600060208284031215612e0e57600080fd5b6000612e1c84828501612bcd565b91505092915050565b60008060008060008060c08789031215612e3e57600080fd5b6000612e4c89828a01612bb9565b9650506020612e5d89828a01612bb9565b955050604087013567ffffffffffffffff811115612e7a57600080fd5b612e8689828a01612cff565b945050606087013567ffffffffffffffff811115612ea357600080fd5b612eaf89828a01612cff565b935050608087013567ffffffffffffffff811115612ecc57600080fd5b612ed889828a01612cff565b92505060a087013567ffffffffffffffff811115612ef557600080fd5b612f0189828a01612cff565b9150509295509295509295565b60008060008060808587031215612f2457600080fd5b6000612f3287828801612bb9565b9450506020612f4387828801612bb9565b935050604085013567ffffffffffffffff811115612f6057600080fd5b612f6c87828801612cff565b9250506060612f7d87828801612dab565b91505092959194509250565b600080600080600060a08688031215612fa157600080fd5b6000612faf88828901612bcd565b9550506020612fc088828901612bcd565b945050604086015167ffffffffffffffff811115612fdd57600080fd5b612fe988828901612d55565b9350506060612ffa88828901612dbf565b925050608061300b88828901612dbf565b9150509295509295909350565b6000806040838503121561302b57600080fd5b600061303985828601612bb9565b925050602061304a85828601612ceb565b9150509250929050565b6000806040838503121561306757600080fd5b600061307585828601612bb9565b925050602083013567ffffffffffffffff81111561309257600080fd5b61309e85828601612cff565b9150509250929050565b600080600080600060a086880312156130c057600080fd5b60006130ce88828901612bb9565b955050602086013567ffffffffffffffff8111156130eb57600080fd5b6130f788828901612cff565b945050604086013567ffffffffffffffff81111561311457600080fd5b61312088828901612cff565b935050606086013567ffffffffffffffff81111561313d57600080fd5b61314988828901612cff565b925050608086013567ffffffffffffffff81111561316657600080fd5b61317288828901612cff565b9150509295509295909350565b6000806040838503121561319257600080fd5b600083015167ffffffffffffffff8111156131ac57600080fd5b6131b885828601612be1565b925050602083015167ffffffffffffffff8111156131d557600080fd5b6131e185828601612c66565b9150509250929050565b6000602082840312156131fd57600080fd5b600082013567ffffffffffffffff81111561321757600080fd5b61322384828501612cff565b91505092915050565b6000806000806080858703121561324257600080fd5b600085013567ffffffffffffffff81111561325c57600080fd5b61326887828801612cff565b945050602061327987828801612bb9565b935050604061328a87828801612dab565b925050606061329b87828801612dab565b91505092959194509250565b6132b081613781565b82525050565b60006132c182613723565b8084526020840193506132d3836136fc565b60005b82811015613305576132e98683516132a7565b6132f28261375a565b91506020860195506001810190506132d6565b50849250505092915050565b600061331c8261372e565b8084526020840193508360208202850161333585613709565b60005b8481101561336e57838303885261335083835161341f565b925061335b82613767565b9150602088019750600181019050613338565b508196508694505050505092915050565b600061338a82613739565b80845260208401935061339c83613716565b60005b828110156133ce576133b2868351613455565b6133bb82613774565b915060208601955060018101905061339f565b50849250505092915050565b6133e3816137a1565b82525050565b60006133f48261374f565b808452613408816020860160208601613809565b6134118161383c565b602085010191505092915050565b600061342a82613744565b80845261343e816020860160208601613809565b6134478161383c565b602085010191505092915050565b61345e816137ad565b82525050565b600060208201905061347960008301846132a7565b92915050565b600060808201905061349460008301876132a7565b6134a160208301866132a7565b81810360408301526134b381856133e9565b90506134c26060830184613455565b95945050505050565b600060a0820190506134e060008301886132a7565b6134ed60208301876132a7565b81810360408301526134ff81866133e9565b905061350e6060830185613455565b61351b6080830184613455565b9695505050505050565b6000602082019050818103600083015261353f81846132b6565b905092915050565b6000604082019050818103600083015261356181856132b6565b90508181036020830152613575818461337f565b90509392505050565b600060208201905081810360008301526135988184613311565b905092915050565b60006020820190506135b560008301846133da565b92915050565b600060c08201905081810360008301526135d581896133e9565b905081810360208301526135e981886133e9565b905081810360408301526135fd81876133e9565b9050818103606083015261361181866133e9565b905061362060808301856132a7565b61362d60a0830184613455565b979650505050505050565b600060208201905061364d6000830184613455565b92915050565b6000604051905081810181811067ffffffffffffffff8211171561367657600080fd5b8060405250919050565b600067ffffffffffffffff82111561369757600080fd5b602082029050602081019050919050565b600067ffffffffffffffff8211156136bf57600080fd5b602082029050602081019050919050565b600067ffffffffffffffff8211156136e757600080fd5b601f19601f8301169050602081019050919050565b6000602082019050919050565b6000602082019050919050565b6000602082019050919050565b600081519050919050565b600081519050919050565b600081519050919050565b600081519050919050565b600081519050919050565b6000602082019050919050565b6000602082019050919050565b6000602082019050919050565b600073ffffffffffffffffffffffffffffffffffffffff82169050919050565b60008115159050919050565b6000819050919050565b600073ffffffffffffffffffffffffffffffffffffffff82169050919050565b60006003821015156137e857600080fd5b819050919050565b6000819050919050565b82818337600083830152505050565b60005b8381101561382757808201518184015260208101905061380c565b83811115613836576000848401525b50505050565b6000601f19601f83011690509190505600608060405234801561001057600080fd5b506110d5806100206000396000f3006080604052600436106100c5576000357c0100000000000000000000000000000000000000000000000000000000900463ffffffff1680631e0018d6146100ca5780636209ec2d146100f557806375b75e531461012057806384e6bc1a1461015d5780638edeb15d146101895780639dfc9117146101b45780639e10caed146101e3578063a10a16fd14610220578063a392a5eb1461025e578063b69ef8a814610289578063ba7b37d4146102b4578063c19d93fb146102f1578063fbcd13291461031c575b600080fd5b3480156100d657600080fd5b506100df610345565b6040516100ec9190610de6565b60405180910390f35b34801561010157600080fd5b5061010a61036b565b6040516101179190610de6565b60405180910390f35b34801561012c57600080fd5b5061014760048036036101429190810190610bb7565b610391565b6040516101549190610de6565b60405180910390f35b34801561016957600080fd5b50610172610460565b604051610180929190610e84565b60405180910390f35b34801561019557600080fd5b5061019e6105f2565b6040516101ab9190610ef8565b60405180910390f35b3480156101c057600080fd5b506101c96105f8565b6040516101da959493929190610e01565b60405180910390f35b3480156101ef57600080fd5b5061020a60048036036102059190810190610c6e565b6106fb565b6040516102179190610ef8565b60405180910390f35b34801561022c57600080fd5b5061024760048036036102429190810190610b8e565b610712565b604051610255929190610e5b565b60405180910390f35b34801561026a57600080fd5b50610273610756565b6040516102809190610ed6565b60405180910390f35b34801561029557600080fd5b5061029e6107f4565b6040516102ab9190610ef8565b60405180910390f35b3480156102c057600080fd5b506102db60048036036102d69190810190610c6e565b6107fa565b6040516102e89190610ef8565b60405180910390f35b3480156102fd57600080fd5b5061030661080d565b6040516103139190610ebb565b60405180910390f35b34801561032857600080fd5b50610343600480360361033e9190810190610c32565b610820565b005b600160009054906101000a900473ffffffffffffffffffffffffffffffffffffffff1681565b600260009054906101000a900473ffffffffffffffffffffffffffffffffffffffff1681565b600080821115156103a157600080fd5b816000819055508160078190555084600160006101000a81548173ffffffffffffffffffffffffffffffffffffffff021916908373ffffffffffffffffffffffffffffffffffffffff16021790555083600260006101000a81548173ffffffffffffffffffffffffffffffffffffffff021916908373ffffffffffffffffffffffffffffffffffffffff1602179055508260039080519060200190610447929190610a3b565b50610453600054610952565b5050309050949350505050565b6060806060806000610470610abb565b600091505b6005805490508210156105e4576004600060058481548110151561049557fe5b9060005260206000200160009054906101000a900473ffffffffffffffffffffffffffffffffffffffff1673ffffffffffffffffffffffffffffffffffffffff1673ffffffffffffffffffffffffffffffffffffffff1681526020019081526020016000206040805190810160405290816000820160009054906101000a900473ffffffffffffffffffffffffffffffffffffffff1673ffffffffffffffffffffffffffffffffffffffff1673ffffffffffffffffffffffffffffffffffffffff16815260200160018201548152505090508060000151848381518110151561057a57fe5b9060200190602002019073ffffffffffffffffffffffffffffffffffffffff16908173ffffffffffffffffffffffffffffffffffffffff1681525050806020015183838151811015156105c957fe5b90602001906020020181815250508180600101925050610475565b838395509550505050509091565b60005481565b6000806060600080600160009054906101000a900473ffffffffffffffffffffffffffffffffffffffff16600260009054906101000a900473ffffffffffffffffffffffffffffffffffffffff166003600054600754828054600181600116156101000203166002900480601f0160208091040260200160405190810160405280929190818152602001828054600181600116156101000203166002900480156106e35780601f106106b8576101008083540402835291602001916106e3565b820191906000526020600020905b8154815290600101906020018083116106c657829003601f168201915b50505050509250945094509450945094509091929394565b600081600754036007819055506007549050919050565b60046020528060005260406000206000915090508060000160009054906101000a900473ffffffffffffffffffffffffffffffffffffffff16908060010154905082565b60038054600181600116156101000203166002900480601f0160208091040260200160405190810160405280929190818152602001828054600181600116156101000203166002900480156107ec5780601f106107c1576101008083540402835291602001916107ec565b820191906000526020600020905b8154815290600101906020018083116107cf57829003601f168201915b505050505081565b60075481565b6000816007819055506007549050919050565b600660009054906101000a900460ff1681565b81600460008473ffffffffffffffffffffffffffffffffffffffff1673ffffffffffffffffffffffffffffffffffffffff16815260200190815260200160002060000160006101000a81548173ffffffffffffffffffffffffffffffffffffffff021916908373ffffffffffffffffffffffffffffffffffffffff16021790555080600460008473ffffffffffffffffffffffffffffffffffffffff1673ffffffffffffffffffffffffffffffffffffffff1681526020019081526020016000206001018190555060058290806001815401808255809150509060018203906000526020600020016000909192909190916101000a81548173ffffffffffffffffffffffffffffffffffffffff021916908373ffffffffffffffffffffffffffffffffffffffff160217905550505050565b600080600260009054906101000a900473ffffffffffffffffffffffffffffffffffffffff1673ffffffffffffffffffffffffffffffffffffffff166108fc849081150290604051600060405180830381858888f193505050501580156109bd573d6000803e3d6000fd5b50600260009054906101000a900473ffffffffffffffffffffffffffffffffffffffff1673ffffffffffffffffffffffffffffffffffffffff1631600160009054906101000a900473ffffffffffffffffffffffffffffffffffffffff1673ffffffffffffffffffffffffffffffffffffffff163191509150915091565b828054600181600116156101000203166002900490600052602060002090601f016020900481019282601f10610a7c57805160ff1916838001178555610aaa565b82800160010185558215610aaa579182015b82811115610aa9578251825591602001919060010190610a8e565b5b509050610ab79190610aeb565b5090565b6040805190810160405280600073ffffffffffffffffffffffffffffffffffffffff168152602001600081525090565b610b0d91905b80821115610b09576000816000905550600101610af1565b5090565b90565b6000610b1c823561100c565b905092915050565b600082601f8301121515610b3757600080fd5b8135610b4a610b4582610f40565b610f13565b91508082526020830160208301858383011115610b6657600080fd5b610b71838284611048565b50505092915050565b6000610b86823561102c565b905092915050565b600060208284031215610ba057600080fd5b6000610bae84828501610b10565b91505092915050565b60008060008060808587031215610bcd57600080fd5b6000610bdb87828801610b10565b9450506020610bec87828801610b10565b935050604085013567ffffffffffffffff811115610c0957600080fd5b610c1587828801610b24565b9250506060610c2687828801610b7a565b91505092959194509250565b60008060408385031215610c4557600080fd5b6000610c5385828601610b10565b9250506020610c6485828601610b7a565b9150509250929050565b600060208284031215610c8057600080fd5b6000610c8e84828501610b7a565b91505092915050565b610ca081610fcc565b82525050565b6000610cb182610f86565b808452602084019350610cc383610f6c565b60005b82811015610cf557610cd9868351610c97565b610ce282610fb2565b9150602086019550600181019050610cc6565b50849250505092915050565b6000610d0c82610f91565b808452602084019350610d1e83610f79565b60005b82811015610d5057610d34868351610dd7565b610d3d82610fbf565b9150602086019550600181019050610d21565b50849250505092915050565b610d6581611036565b82525050565b6000610d7682610fa7565b808452610d8a816020860160208601611057565b610d938161108a565b602085010191505092915050565b6000610dac82610f9c565b808452610dc0816020860160208601611057565b610dc98161108a565b602085010191505092915050565b610de081611002565b82525050565b6000602082019050610dfb6000830184610c97565b92915050565b600060a082019050610e166000830188610c97565b610e236020830187610c97565b8181036040830152610e358186610d6b565b9050610e446060830185610dd7565b610e516080830184610dd7565b9695505050505050565b6000604082019050610e706000830185610c97565b610e7d6020830184610dd7565b9392505050565b60006040820190508181036000830152610e9e8185610ca6565b90508181036020830152610eb28184610d01565b90509392505050565b6000602082019050610ed06000830184610d5c565b92915050565b60006020820190508181036000830152610ef08184610da1565b905092915050565b6000602082019050610f0d6000830184610dd7565b92915050565b6000604051905081810181811067ffffffffffffffff82111715610f3657600080fd5b8060405250919050565b600067ffffffffffffffff821115610f5757600080fd5b601f19601f8301169050602081019050919050565b6000602082019050919050565b6000602082019050919050565b600081519050919050565b600081519050919050565b600081519050919050565b600081519050919050565b6000602082019050919050565b6000602082019050919050565b600073ffffffffffffffffffffffffffffffffffffffff82169050919050565b6000600382101515610ffa57fe5b819050919050565b6000819050919050565b600073ffffffffffffffffffffffffffffffffffffffff82169050919050565b6000819050919050565b600061104182610fec565b9050919050565b82818337600083830152505050565b60005b8381101561107557808201518184015260208101905061105a565b83811115611084576000848401525b50505050565b6000601f19601f83011690509190505600a265627a7a7230582090e05ea971c3791b239dd961f22f2e89eceb3217406582af681cc7ff9a5faec16c6578706572696d656e74616cf50037a265627a7a72305820eb78e07408f5b70cd2452ebdba9cace141aeb76cb5781e8e29169b1e69d641eb6c6578706572696d656e74616cf50037",
  "source": "pragma solidity ^0.4.21;\r\npragma experimental ABIEncoderV2;\r\n\r\n//import \"./DonationPledge.sol\";\r\n\r\ncontract Master{\r\n\tuint lastIndex = 0;\r\n    constructor() public payable {\r\n    \t//lastIndex = createUser();//creates test users\r\n    }\r\n    enum ParticipantTypes { Investor, FM, Beneficiary }\r\n    uint priorBalance = 0;\r\n\t\r\n\tstruct Beneficiary{\r\n\t    Participant beneProfile;\r\n\t}\r\n\t\r\n\t//contract and balance info that has balance but insufficient.\r\n\tstruct bufferContract{\r\n\t    uint amount;\r\n\t}\r\n\r\n\tstruct CampaignFG{\r\n\t    string name;\r\n\t    address[] beneficiaries;\r\n\t    address[] contracts;\r\n\t    address fmId;\r\n\t    uint index;\r\n\t    uint256 startDate;\r\n\t    uint256 expiryDate;\r\n\t    bool active;\r\n\t    uint balance;\r\n\t}\r\n\r\n\tstruct FM{\r\n\t    Participant fmProfile;\r\n\t    string[] campaignFGs;\r\n\t    address[] beneficiaries;\r\n\t    mapping(address=>address) transactions;\r\n\t    uint balance;\r\n\t}\r\n\t\r\n\tstruct Investor{\r\n\t    Participant investorProfile;\r\n\t    address[] transactions;// transactions happened \r\n\t    address[] contracts;//pledged contracts\r\n\t}\r\n\r\n    //represents the registered user.\r\n    struct Participant{\r\n\t\tstring name;//required\r\n\t\tstring emailId;//required\r\n\t\tstring phNumber;//required\r\n\t\taddress acctId;//autogen\r\n\t\tstring idProof;//required if the investor needs a statement, mandatory for Fm and beneficiary \r\n\t\tstring password;//autogen\r\n\t\tuint index;\r\n\t}\r\n\r\n\t//Collection of all registered users.\r\n    mapping(address => Investor) private RegisteredInvestors;\r\n    mapping(address => FM) private RegisteredFMs;\r\n    mapping(address => Beneficiary) private RegisteredBeneficiaries;\r\n    mapping(string => CampaignFG) private RegisteredCampaignFGs;//TODO : enhancement - need another key than name\r\n\r\n\r\n    //to handle balances and transactions.\r\n    //this collection is the contracts that have balances but insufficient.\r\n    mapping(address=>bufferContract) bufferContracts;\r\n    address[] private bufferContractsIndex;\r\n    \r\n    //is used to manipulate the length of the collection\r\n    //since mapping does not support iteration.\r\n    address[] private beneIndex;\r\n    string[] private cFGIndex;\r\n    address[] private fmIndex;\r\n    address[] private invIndex;\r\n    \r\n    //inserts new fund manager to the registered fm list.\r\n    //returns the index of the inserted beneficiary in the registered beneficiaries list.\r\n    //use addBeneficiaryToCFG() method to add a Beneficiary to campaign.\r\n    function addBeneficiary(address _acctId, address _fmId, string _name, string _emailId, string _phNumber, string _password)\r\n    public\r\n    returns(uint){\r\n        if(isUserExist(_acctId,  ParticipantTypes.Beneficiary)) revert();\r\n        RegisteredBeneficiaries[_acctId].beneProfile.name = _name;\r\n        RegisteredBeneficiaries[_acctId].beneProfile.emailId = _emailId;\r\n        RegisteredBeneficiaries[_acctId].beneProfile.phNumber = _phNumber;\r\n        RegisteredBeneficiaries[_acctId].beneProfile.password = _password;\r\n        RegisteredBeneficiaries[_acctId].beneProfile.acctId = _acctId;\r\n        RegisteredBeneficiaries[_acctId].beneProfile.index = beneIndex.push(_acctId) - 1;//for tracking the beneficiaries from global collection.\r\n        RegisteredFMs[_fmId].beneficiaries.push(_acctId);//maps beneficiary to fm.\r\n        return beneIndex.length - 1;\r\n    }\r\n\r\n\t//adds a beneficiary to a campaign/ focus group.\r\n\t//returns true if added successfully.\r\n    function addBeneficiaryToCFG(address _beneAddr, string _cFgName)\r\n    public\r\n    returns(bool)\r\n    {\r\n        if(!isUserExist(_beneAddr, ParticipantTypes.Beneficiary)) revert();\r\n        RegisteredCampaignFGs[_cFgName].beneficiaries.push(_beneAddr);\r\n        return true;\r\n    }\r\n\r\n\t//inserts new campaign/focus group to the ist.\r\n    //returns the index of the inserted campaign in the registered campaigns list.\r\n    //name is the name of the campaign.\r\n    function addCampaignFG(string _name, address _fmId, uint256 _startDate, uint256 _expiryDate)\r\n    public\r\n    returns(uint){\r\n        RegisteredCampaignFGs[_name].fmId = _fmId;\r\n        RegisteredCampaignFGs[_name].startDate = _startDate;\r\n        RegisteredCampaignFGs[_name].expiryDate = _expiryDate;\r\n        RegisteredCampaignFGs[_name].active = true;\r\n        RegisteredCampaignFGs[_name].index = cFGIndex.push(_name) - 1;\r\n        RegisteredFMs[_fmId].campaignFGs.push(_name);\r\n        return cFGIndex.length - 1;\r\n    }\r\n    \r\n     //adds a contracts pledged to a campaign/ focus group.\r\n     //returns true if added successfully.\r\n    function addContractToCFG(address _contractAddr, string _cFgName)\r\n    public\r\n    returns(bool)\r\n    {\r\n        //check if cfg exists\r\n        RegisteredCampaignFGs[_cFgName].contracts.push(_contractAddr);\r\n        return true;\r\n    }\r\n\r\n    //inserts new fund manager to the registered fm list.\r\n    //returns the index of the inserted fund manager in the registered fund managers list.\r\n    function addFM(address _acctId, string _name, string _emailId, string _phNumber, string _password)\r\n    public\r\n    returns(uint){\r\n        if(isUserExist(_acctId, ParticipantTypes.FM)) revert();\r\n        RegisteredFMs[_acctId].fmProfile.name = _name;\r\n        RegisteredFMs[_acctId].fmProfile.emailId = _emailId;\r\n        RegisteredFMs[_acctId].fmProfile.phNumber = _phNumber;\r\n        RegisteredFMs[_acctId].fmProfile.password = _password;\r\n        RegisteredFMs[_acctId].fmProfile.acctId = _acctId;\r\n        RegisteredFMs[_acctId].fmProfile.index = fmIndex.push(_acctId) - 1;\r\n        return fmIndex.length - 1;\r\n    }\r\n\r\n    //inserts new investor to the registered investors list.\r\n    //returns the index of the inserted user.\r\n    function addInvestor(address _acctId, string  _name, string  _emailId, string  _phNumber,  string  _password)\r\n    public\r\n    returns(uint){\r\n        if(isUserExist(_acctId,  ParticipantTypes.Investor)) revert();\r\n        RegisteredInvestors[_acctId].investorProfile.name = _name;\r\n        RegisteredInvestors[_acctId].investorProfile.emailId = _emailId;\r\n        RegisteredInvestors[_acctId].investorProfile.phNumber = _phNumber;\r\n        RegisteredInvestors[_acctId].investorProfile.password = _password;\r\n        RegisteredInvestors[_acctId].investorProfile.acctId = _acctId;\r\n        RegisteredInvestors[_acctId].investorProfile.index = invIndex.push(_acctId) - 1;\r\n        return invIndex.length - 1;\r\n    }\r\n\r\n    //creates a contract, each time an investor pledges amount for a campaign/focus group\r\n    function createPledge(address _invAddr, address _fmAddr, string _cFgName, uint _amount)\r\n    public\r\n    payable\r\n    returns (address) \r\n    {\r\n    \trequire(_amount > 0);\r\n        DonationPledge dp =  new DonationPledge();\r\n        dp.addPledgeDetails(_invAddr, _fmAddr, _cFgName, _amount);\r\n        RegisteredInvestors[msg.sender].contracts.push(address(dp));\r\n        RegisteredCampaignFGs[_cFgName].contracts.push(address(dp));\r\n        return address(dp);\r\n    }\r\n\r\n    //returns the campaigns registered under a fund manager.\r\n    //TODO: implement actula filteration.\r\n    function getCampaigns()\r\n    public view\r\n    returns(string[])\r\n    {\r\n    \treturn cFGIndex;\r\n    }\r\n\r\n    //returns the campaigns registered under a fund manager.\r\n    //TODO: implement actula filteration.\r\n    function getCampaignsUnderFM(address _fmAddr)\r\n    public view\r\n    returns(string[])\r\n    {\r\n        return RegisteredFMs[_fmAddr].campaignFGs;\r\n    }\r\n\r\n    //returns the beneficiaries under a campaign.\r\n    function getCFGBeneficiaries(string _cfgName)\r\n    public view\r\n    returns(address[])\r\n    {\r\n        return RegisteredCampaignFGs[_cfgName].beneficiaries;\r\n    }\r\n    \r\n    //returns the total number of beneficiaries under a campaign.\r\n    function getCFGBeneficiariesCount(string _cfgName)\r\n    public view\r\n    returns(uint256)\r\n    {\r\n        return RegisteredCampaignFGs[_cfgName].beneficiaries.length;\r\n    }\r\n\r\n    //returns the contracts pledged against a campaign.\r\n    function getCFGContracts(string _cfgName)\r\n    public view\r\n    returns(address[])\r\n    {\r\n        return RegisteredCampaignFGs[_cfgName].contracts;\r\n    }\r\n\r\n    //returns the details of the contract pledged by investor.\r\n    function getPledgeContractDetails(address _contractAddr)\r\n    public view\r\n    returns (address _investorAddress, address _fundManagerAddr, string _cfgName, uint _pledgedAmount, uint _balance)\r\n    {\r\n        DonationPledge dp;\r\n        dp = DonationPledge(_contractAddr);\r\n        return dp.getContractDetails();\r\n    }\r\n\r\n    //returns the pledged contracted information.\r\n    //returning struct is not supported as of Nov 23, 18.\r\n    //so beneficiaries address and amount details are returned separately.\r\n    function getContractTransactions(address _contractAddr)\r\n    public view\r\n    returns(address[], uint[])\r\n    {\r\n        DonationPledge dp = DonationPledge(_contractAddr);\r\n        return dp.getContractTransactions();\r\n    }\r\n\r\n    //returns the registered user info if exists.\r\n    function  getUser(address _id, ParticipantTypes _pType)\r\n    public \r\n    view\r\n    returns (string, string, string, string, address,uint){\r\n        if(!isUserExist(_id, _pType)) revert();\r\n        if(_pType == ParticipantTypes.Investor)\r\n        {\r\n            \r\n            return(\r\n            RegisteredInvestors[_id].investorProfile.name,\r\n            RegisteredInvestors[_id].investorProfile.emailId,\r\n            RegisteredInvestors[_id].investorProfile.phNumber,\r\n            RegisteredInvestors[_id].investorProfile.password,\r\n            RegisteredInvestors[_id].investorProfile.acctId,\r\n            RegisteredInvestors[_id].investorProfile.index\r\n            );\r\n        }\r\n        \r\n        if(_pType == ParticipantTypes.FM)\r\n        {\r\n            return(\r\n            RegisteredFMs[_id].fmProfile.name,\r\n            RegisteredFMs[_id].fmProfile.emailId,\r\n            RegisteredFMs[_id].fmProfile.phNumber,\r\n            RegisteredFMs[_id].fmProfile.password,\r\n            RegisteredFMs[_id].fmProfile.acctId,\r\n            RegisteredFMs[_id].fmProfile.index\r\n            );\r\n        }\r\n        \r\n        if(_pType == ParticipantTypes.Beneficiary)\r\n        {\r\n            return(\r\n            RegisteredBeneficiaries[_id].beneProfile.name,\r\n            RegisteredBeneficiaries[_id].beneProfile.emailId,\r\n            RegisteredBeneficiaries[_id].beneProfile.phNumber,\r\n            RegisteredBeneficiaries[_id].beneProfile.password,\r\n            RegisteredBeneficiaries[_id].beneProfile.acctId,\r\n            RegisteredBeneficiaries[_id].beneProfile.index\r\n            );\r\n        }\r\n    }\r\n\r\n    //returns true if the current user is a registered user.\r\n    function isUserExist (address _curUser, ParticipantTypes _pType)\r\n    private \r\n    constant\r\n    returns(bool){\r\n            if(_pType == ParticipantTypes.Investor)\r\n            {\r\n                if(invIndex.length == 0 ) return false;\r\n                return (invIndex[RegisteredInvestors[_curUser].investorProfile.index] == _curUser);\r\n            }\r\n            \r\n            if(_pType == ParticipantTypes.FM)\r\n            {\r\n                if(fmIndex.length == 0 ) return false;\r\n                return (fmIndex[RegisteredFMs[_curUser].fmProfile.index] == _curUser);\r\n            }\r\n            \r\n            if(_pType == ParticipantTypes.Beneficiary)\r\n            {\r\n                if(beneIndex.length == 0 ) return false;\r\n                return (beneIndex[RegisteredBeneficiaries[_curUser].beneProfile.index] == _curUser);\r\n            }\r\n    }\r\n\r\n\r\n    /*//test region\r\n    Sample data\r\n    {\r\n    \t app.createPledge(0xeE4517058Ff234A12700153d22e887B0CCff263D, 0xd79b66B72292c42729b22AA55231960510159F7C, CFG1\", 10)\r\n    \t app.addInvestor(0xeE4517058Ff234A12700153d22e887B0CCff263D, \"Investor1\", \"inv1@gmail.com\", \"90371099873\", \"Pass@123\")\r\n    \t app.getUser(0xeE4517058Ff234A12700153d22e887B0CCff263D, 0)\r\n    \t app.addFM(0xd79b66B72292c42729b22AA55231960510159F7C, \"FM1\", \"fm1@gmail.com\", \"90371099873\", \"Pass@123\")\r\n    \t app.getUser(0xd79b66B72292c42729b22AA55231960510159F7C, 1)\r\n    \t app.addBeneficiary(0x8F2594666D90923F40d7e32cBF059A3d92d377C1, 0xd79b66B72292c42729b22AA55231960510159F7C,\"Bene1\", \"bene1@gmail.com\", \"90371099873\", \"Pass@123\")\r\n    \t app.getUser(0x8F2594666D90923F40d7e32cBF059A3d92d377C1, 2)\r\n    \t app.addCampaignFG(\"CmFG1\", 0xd79b66B72292c42729b22AA55231960510159F7C, 18, 20)\r\n    \t app.addBeneficiaryToCFG(0x8F2594666D90923F40d7e32cBF059A3d92d377C1, \"CFG1\")\r\n    \t return true;\r\n    }*/\t\r\n}\t\r\n\r\n/**************************************************************************************************/\r\n/* Donation Pledge contract */\r\npragma solidity ^0.4.21;\r\n\r\n//Contract for donation \r\ncontract DonationPledge {\r\n    uint public donation;\r\n    address public investor;\r\n    address public fundManager;\r\n    string public campaignFG;\r\n    mapping(address => tranInfo) public transactionInfo; \r\n    address[] tranInfoIndex;\r\n    enum State { Created, Locked, Inactive }\r\n    State public state;\r\n    uint public balance;\r\n    \r\n    struct tranInfo{\r\n        address beneficiaryId;\r\n        uint amountDisbursed;\r\n    }\r\n\r\n\r\n    constructor()\r\n    public\r\n    {\r\n        \r\n    }\r\n     \r\n    //adds details to the instance\r\n    //TRANSFERS Fund to Fund Manager\r\n    //returns the contract address\r\n    function addPledgeDetails(address _invAddr, address _fmAddr, string _cFgName, uint _amount)\r\n    public\r\n    returns (address)\r\n    {\r\n    \trequire(_amount > 0);\r\n        donation = _amount;\r\n        balance = _amount;\r\n        investor = _invAddr;\r\n        fundManager = _fmAddr;\r\n        campaignFG = _cFgName;\r\n        initialTransfer(donation);\r\n        return address(this);\r\n    }\r\n\r\n    //adds the transactions performed for each beneficiary.\r\n    function addTransactionInfo (address _beneficiary, uint _amount)\r\n    public\r\n    {\r\n        transactionInfo[_beneficiary].beneficiaryId = _beneficiary;\r\n        transactionInfo[_beneficiary].amountDisbursed = _amount; \r\n        tranInfoIndex.push(_beneficiary);\r\n    }\r\n\r\n    //returns the contract information.\r\n    function getContractDetails()\r\n    public\r\n    view\r\n    returns (address, address, string, uint, uint)\r\n    {\r\n        return(investor, fundManager,campaignFG, donation, balance);\r\n    }\r\n    \r\n    //gets all the transactions performed against this contract.\r\n    function getContractTransactions()\r\n    public view\r\n    returns(address[], uint[] )\r\n    {\r\n        address[] memory _beneficiaries;\r\n        uint[] memory _tranAmt;\r\n        for(uint i = 0; i < tranInfoIndex.length; i++)\r\n        {\r\n            tranInfo memory info = transactionInfo[tranInfoIndex[i]];\r\n            _beneficiaries[i] = info.beneficiaryId;\r\n            _tranAmt[i] = info.amountDisbursed;\r\n        }\r\n        \r\n        return (_beneficiaries, _tranAmt);\r\n    }\r\n    \r\n    //transfers the amount pledged by investor to the fund manager account\r\n    //while creating the pledging.    \r\n    function initialTransfer(uint _amount)\r\n    private \r\n    returns(uint, uint)\r\n    {\r\n        fundManager.transfer(_amount);\r\n        return (fundManager.balance, investor.balance);\r\n    }\r\n    \r\n    //updates the current balance.\r\n    function updateBalance(uint _amount)\r\n    public \r\n    returns(uint)\r\n    {\r\n        balance = _amount;\r\n        return (balance);\r\n    }\r\n    \r\n    //deducts the provided amount from balance.\r\n    function reduceBalance(uint _amount)\r\n    public \r\n    returns(uint)\r\n    {\r\n        balance = balance - _amount;\r\n        return (balance);\r\n    }\r\n}",
  "sourcePath": "C:\\Work\\BC\\Dev\\FundChain\\Project\\FundChainTruffle\\contracts\\Master.sol",
  "compiler": {
    "name": "solc",
    "version": "0.4.24+commit.e67f0147.Emscripten.clang"
  },
  "schemaVersion": "2.0.1",
  "updatedAt": "2018-11-26T00:00:51.518Z"
}